{
  "address": "0x584e25691e760DD75c39d6c58DA0b2329361a61e",
  "abi": [
    {
      "inputs": [
        {
          "internalType": "string",
          "name": "name",
          "type": "string"
        },
        {
          "internalType": "string",
          "name": "symbol",
          "type": "string"
        },
        {
          "internalType": "uint256",
          "name": "_initialSupply",
          "type": "uint256"
        }
      ],
      "name": "CreateRealEstateToken",
      "outputs": [],
      "stateMutability": "nonpayable",
      "type": "function"
    },
    {
      "inputs": [
        {
          "internalType": "uint256",
          "name": "",
          "type": "uint256"
        }
      ],
      "name": "RealEstateContracts",
      "outputs": [
        {
          "internalType": "contract RealEstateToken",
          "name": "",
          "type": "address"
        }
      ],
      "stateMutability": "view",
      "type": "function"
    },
    {
      "inputs": [
        {
          "internalType": "uint256",
          "name": "_contractIndex",
          "type": "uint256"
        }
      ],
      "name": "gfGetter",
      "outputs": [
        {
          "internalType": "uint256",
          "name": "",
          "type": "uint256"
        }
      ],
      "stateMutability": "view",
      "type": "function"
    }
  ],
  "transactionHash": "0x97c9510112091b5135025a8a2a07d0070b611c9204a66bfc76c77a35dfaf8b54",
  "args": [],
  "numDeployments": 1,
  "solcInputHash": "ad0b9dc632724b88a8d0f4dcd61e255f",
  "bytecode": "0x608060405234801561001057600080fd5b50611e51806100206000396000f3fe60806040523480156200001157600080fd5b5060043610620000465760003560e01c80631a34661e146200004b578063931ed637146200006b578063bef9b6ad14620000a1575b600080fd5b6200006960048036038101906200006391906200043b565b620000d7565b005b620000896004803603810190620000839190620004d5565b62000181565b60405162000098919062000518565b60405180910390f35b620000bf6004803603810190620000b99190620004d5565b6200023c565b604051620000ce9190620005c0565b60405180910390f35b6000838383604051620000ea906200027c565b620000f89392919062000670565b604051809103906000f08015801562000115573d6000803e3d6000fd5b5090506000819080600181540180825580915050600190039060005260206000200160009091909190916101000a81548173ffffffffffffffffffffffffffffffffffffffff021916908373ffffffffffffffffffffffffffffffffffffffff16021790555050505050565b6000808281548110620001995762000198620006bb565b5b9060005260206000200160009054906101000a900473ffffffffffffffffffffffffffffffffffffffff1673ffffffffffffffffffffffffffffffffffffffff16636c9c2faf6040518163ffffffff1660e01b8152600401602060405180830381865afa1580156200020f573d6000803e3d6000fd5b505050506040513d601f19601f8201168201806040525081019062000235919062000701565b9050919050565b600081815481106200024d57600080fd5b906000526020600020016000915054906101000a900473ffffffffffffffffffffffffffffffffffffffff1681565b6116e8806200073483390190565b6000604051905090565b600080fd5b600080fd5b600080fd5b600080fd5b6000601f19601f8301169050919050565b7f4e487b7100000000000000000000000000000000000000000000000000000000600052604160045260246000fd5b620002f382620002a8565b810181811067ffffffffffffffff82111715620003155762000314620002b9565b5b80604052505050565b60006200032a6200028a565b9050620003388282620002e8565b919050565b600067ffffffffffffffff8211156200035b576200035a620002b9565b5b6200036682620002a8565b9050602081019050919050565b82818337600083830152505050565b60006200039962000393846200033d565b6200031e565b905082815260208101848484011115620003b857620003b7620002a3565b5b620003c584828562000373565b509392505050565b600082601f830112620003e557620003e46200029e565b5b8135620003f784826020860162000382565b91505092915050565b6000819050919050565b620004158162000400565b81146200042157600080fd5b50565b60008135905062000435816200040a565b92915050565b60008060006060848603121562000457576200045662000294565b5b600084013567ffffffffffffffff81111562000478576200047762000299565b5b6200048686828701620003cd565b935050602084013567ffffffffffffffff811115620004aa57620004a962000299565b5b620004b886828701620003cd565b9250506040620004cb8682870162000424565b9150509250925092565b600060208284031215620004ee57620004ed62000294565b5b6000620004fe8482850162000424565b91505092915050565b620005128162000400565b82525050565b60006020820190506200052f600083018462000507565b92915050565b600073ffffffffffffffffffffffffffffffffffffffff82169050919050565b6000819050919050565b6000620005806200057a620005748462000535565b62000555565b62000535565b9050919050565b600062000594826200055f565b9050919050565b6000620005a88262000587565b9050919050565b620005ba816200059b565b82525050565b6000602082019050620005d76000830184620005af565b92915050565b600081519050919050565b600082825260208201905092915050565b60005b8381101562000619578082015181840152602081019050620005fc565b8381111562000629576000848401525b50505050565b60006200063c82620005dd565b620006488185620005e8565b93506200065a818560208601620005f9565b6200066581620002a8565b840191505092915050565b600060608201905081810360008301526200068c81866200062f565b90508181036020830152620006a281856200062f565b9050620006b3604083018462000507565b949350505050565b7f4e487b7100000000000000000000000000000000000000000000000000000000600052603260045260246000fd5b600081519050620006fb816200040a565b92915050565b6000602082840312156200071a576200071962000294565b5b60006200072a84828501620006ea565b9150509291505056fe60806040523480156200001157600080fd5b50604051620016e8380380620016e8833981810160405281019062000037919062000305565b82828160039080519060200190620000519291906200007d565b5080600490805190602001906200006a9291906200007d565b5050508060058190555050505062000403565b8280546200008b90620003ce565b90600052602060002090601f016020900481019282620000af5760008555620000fb565b82601f10620000ca57805160ff1916838001178555620000fb565b82800160010185558215620000fb579182015b82811115620000fa578251825591602001919060010190620000dd565b5b5090506200010a91906200010e565b5090565b5b80821115620001295760008160009055506001016200010f565b5090565b6000604051905090565b600080fd5b600080fd5b600080fd5b600080fd5b6000601f19601f8301169050919050565b7f4e487b7100000000000000000000000000000000000000000000000000000000600052604160045260246000fd5b62000196826200014b565b810181811067ffffffffffffffff82111715620001b857620001b76200015c565b5b80604052505050565b6000620001cd6200012d565b9050620001db82826200018b565b919050565b600067ffffffffffffffff821115620001fe57620001fd6200015c565b5b62000209826200014b565b9050602081019050919050565b60005b838110156200023657808201518184015260208101905062000219565b8381111562000246576000848401525b50505050565b6000620002636200025d84620001e0565b620001c1565b90508281526020810184848401111562000282576200028162000146565b5b6200028f84828562000216565b509392505050565b600082601f830112620002af57620002ae62000141565b5b8151620002c18482602086016200024c565b91505092915050565b6000819050919050565b620002df81620002ca565b8114620002eb57600080fd5b50565b600081519050620002ff81620002d4565b92915050565b60008060006060848603121562000321576200032062000137565b5b600084015167ffffffffffffffff8111156200034257620003416200013c565b5b620003508682870162000297565b935050602084015167ffffffffffffffff8111156200037457620003736200013c565b5b620003828682870162000297565b92505060406200039586828701620002ee565b9150509250925092565b7f4e487b7100000000000000000000000000000000000000000000000000000000600052602260045260246000fd5b60006002820490506001821680620003e757607f821691505b602082108103620003fd57620003fc6200039f565b5b50919050565b6112d580620004136000396000f3fe608060405234801561001057600080fd5b50600436106100cf5760003560e01c8063395093511161008c57806395d89b411161006657806395d89b411461022a578063a457c2d714610248578063a9059cbb14610278578063dd62ed3e146102a8576100cf565b806339509351146101ac5780636c9c2faf146101dc57806370a08231146101fa576100cf565b8063047fc9aa146100d457806306fdde03146100f2578063095ea7b31461011057806318160ddd1461014057806323b872dd1461015e578063313ce5671461018e575b600080fd5b6100dc6102d8565b6040516100e99190610b10565b60405180910390f35b6100fa6102de565b6040516101079190610bc4565b60405180910390f35b61012a60048036038101906101259190610c75565b610370565b6040516101379190610cd0565b60405180910390f35b610148610393565b6040516101559190610b10565b60405180910390f35b61017860048036038101906101739190610ceb565b61039d565b6040516101859190610cd0565b60405180910390f35b6101966103cc565b6040516101a39190610d5a565b60405180910390f35b6101c660048036038101906101c19190610c75565b6103d5565b6040516101d39190610cd0565b60405180910390f35b6101e461040c565b6040516101f19190610b10565b60405180910390f35b610214600480360381019061020f9190610d75565b610416565b6040516102219190610b10565b60405180910390f35b61023261045e565b60405161023f9190610bc4565b60405180910390f35b610262600480360381019061025d9190610c75565b6104f0565b60405161026f9190610cd0565b60405180910390f35b610292600480360381019061028d9190610c75565b610567565b60405161029f9190610cd0565b60405180910390f35b6102c260048036038101906102bd9190610da2565b61058a565b6040516102cf9190610b10565b60405180910390f35b60055481565b6060600380546102ed90610e11565b80601f016020809104026020016040519081016040528092919081815260200182805461031990610e11565b80156103665780601f1061033b57610100808354040283529160200191610366565b820191906000526020600020905b81548152906001019060200180831161034957829003601f168201915b5050505050905090565b60008061037b610611565b9050610388818585610619565b600191505092915050565b6000600254905090565b6000806103a8610611565b90506103b58582856107e2565b6103c085858561086e565b60019150509392505050565b60006012905090565b6000806103e0610611565b90506104018185856103f2858961058a565b6103fc9190610e71565b610619565b600191505092915050565b6000600554905090565b60008060008373ffffffffffffffffffffffffffffffffffffffff1673ffffffffffffffffffffffffffffffffffffffff168152602001908152602001600020549050919050565b60606004805461046d90610e11565b80601f016020809104026020016040519081016040528092919081815260200182805461049990610e11565b80156104e65780601f106104bb576101008083540402835291602001916104e6565b820191906000526020600020905b8154815290600101906020018083116104c957829003601f168201915b5050505050905090565b6000806104fb610611565b90506000610509828661058a565b90508381101561054e576040517f08c379a000000000000000000000000000000000000000000000000000000000815260040161054590610f39565b60405180910390fd5b61055b8286868403610619565b60019250505092915050565b600080610572610611565b905061057f81858561086e565b600191505092915050565b6000600160008473ffffffffffffffffffffffffffffffffffffffff1673ffffffffffffffffffffffffffffffffffffffff16815260200190815260200160002060008373ffffffffffffffffffffffffffffffffffffffff1673ffffffffffffffffffffffffffffffffffffffff16815260200190815260200160002054905092915050565b600033905090565b600073ffffffffffffffffffffffffffffffffffffffff168373ffffffffffffffffffffffffffffffffffffffff1603610688576040517f08c379a000000000000000000000000000000000000000000000000000000000815260040161067f90610fcb565b60405180910390fd5b600073ffffffffffffffffffffffffffffffffffffffff168273ffffffffffffffffffffffffffffffffffffffff16036106f7576040517f08c379a00000000000000000000000000000000000000000000000000000000081526004016106ee9061105d565b60405180910390fd5b80600160008573ffffffffffffffffffffffffffffffffffffffff1673ffffffffffffffffffffffffffffffffffffffff16815260200190815260200160002060008473ffffffffffffffffffffffffffffffffffffffff1673ffffffffffffffffffffffffffffffffffffffff168152602001908152602001600020819055508173ffffffffffffffffffffffffffffffffffffffff168373ffffffffffffffffffffffffffffffffffffffff167f8c5be1e5ebec7d5bd14f71427d1e84f3dd0314c0f7b2291e5b200ac8c7c3b925836040516107d59190610b10565b60405180910390a3505050565b60006107ee848461058a565b90507fffffffffffffffffffffffffffffffffffffffffffffffffffffffffffffffff8114610868578181101561085a576040517f08c379a0000000000000000000000000000000000000000000000000000000008152600401610851906110c9565b60405180910390fd5b6108678484848403610619565b5b50505050565b600073ffffffffffffffffffffffffffffffffffffffff168373ffffffffffffffffffffffffffffffffffffffff16036108dd576040517f08c379a00000000000000000000000000000000000000000000000000000000081526004016108d49061115b565b60405180910390fd5b600073ffffffffffffffffffffffffffffffffffffffff168273ffffffffffffffffffffffffffffffffffffffff160361094c576040517f08c379a0000000000000000000000000000000000000000000000000000000008152600401610943906111ed565b60405180910390fd5b610957838383610aed565b60008060008573ffffffffffffffffffffffffffffffffffffffff1673ffffffffffffffffffffffffffffffffffffffff168152602001908152602001600020549050818110156109dd576040517f08c379a00000000000000000000000000000000000000000000000000000000081526004016109d49061127f565b60405180910390fd5b8181036000808673ffffffffffffffffffffffffffffffffffffffff1673ffffffffffffffffffffffffffffffffffffffff16815260200190815260200160002081905550816000808573ffffffffffffffffffffffffffffffffffffffff1673ffffffffffffffffffffffffffffffffffffffff1681526020019081526020016000206000828254610a709190610e71565b925050819055508273ffffffffffffffffffffffffffffffffffffffff168473ffffffffffffffffffffffffffffffffffffffff167fddf252ad1be2c89b69c2b068fc378daa952ba7f163c4a11628f55a4df523b3ef84604051610ad49190610b10565b60405180910390a3610ae7848484610af2565b50505050565b505050565b505050565b6000819050919050565b610b0a81610af7565b82525050565b6000602082019050610b256000830184610b01565b92915050565b600081519050919050565b600082825260208201905092915050565b60005b83811015610b65578082015181840152602081019050610b4a565b83811115610b74576000848401525b50505050565b6000601f19601f8301169050919050565b6000610b9682610b2b565b610ba08185610b36565b9350610bb0818560208601610b47565b610bb981610b7a565b840191505092915050565b60006020820190508181036000830152610bde8184610b8b565b905092915050565b600080fd5b600073ffffffffffffffffffffffffffffffffffffffff82169050919050565b6000610c1682610beb565b9050919050565b610c2681610c0b565b8114610c3157600080fd5b50565b600081359050610c4381610c1d565b92915050565b610c5281610af7565b8114610c5d57600080fd5b50565b600081359050610c6f81610c49565b92915050565b60008060408385031215610c8c57610c8b610be6565b5b6000610c9a85828601610c34565b9250506020610cab85828601610c60565b9150509250929050565b60008115159050919050565b610cca81610cb5565b82525050565b6000602082019050610ce56000830184610cc1565b92915050565b600080600060608486031215610d0457610d03610be6565b5b6000610d1286828701610c34565b9350506020610d2386828701610c34565b9250506040610d3486828701610c60565b9150509250925092565b600060ff82169050919050565b610d5481610d3e565b82525050565b6000602082019050610d6f6000830184610d4b565b92915050565b600060208284031215610d8b57610d8a610be6565b5b6000610d9984828501610c34565b91505092915050565b60008060408385031215610db957610db8610be6565b5b6000610dc785828601610c34565b9250506020610dd885828601610c34565b9150509250929050565b7f4e487b7100000000000000000000000000000000000000000000000000000000600052602260045260246000fd5b60006002820490506001821680610e2957607f821691505b602082108103610e3c57610e3b610de2565b5b50919050565b7f4e487b7100000000000000000000000000000000000000000000000000000000600052601160045260246000fd5b6000610e7c82610af7565b9150610e8783610af7565b9250827fffffffffffffffffffffffffffffffffffffffffffffffffffffffffffffffff03821115610ebc57610ebb610e42565b5b828201905092915050565b7f45524332303a2064656372656173656420616c6c6f77616e63652062656c6f7760008201527f207a65726f000000000000000000000000000000000000000000000000000000602082015250565b6000610f23602583610b36565b9150610f2e82610ec7565b604082019050919050565b60006020820190508181036000830152610f5281610f16565b9050919050565b7f45524332303a20617070726f76652066726f6d20746865207a65726f2061646460008201527f7265737300000000000000000000000000000000000000000000000000000000602082015250565b6000610fb5602483610b36565b9150610fc082610f59565b604082019050919050565b60006020820190508181036000830152610fe481610fa8565b9050919050565b7f45524332303a20617070726f766520746f20746865207a65726f20616464726560008201527f7373000000000000000000000000000000000000000000000000000000000000602082015250565b6000611047602283610b36565b915061105282610feb565b604082019050919050565b600060208201905081810360008301526110768161103a565b9050919050565b7f45524332303a20696e73756666696369656e7420616c6c6f77616e6365000000600082015250565b60006110b3601d83610b36565b91506110be8261107d565b602082019050919050565b600060208201905081810360008301526110e2816110a6565b9050919050565b7f45524332303a207472616e736665722066726f6d20746865207a65726f20616460008201527f6472657373000000000000000000000000000000000000000000000000000000602082015250565b6000611145602583610b36565b9150611150826110e9565b604082019050919050565b6000602082019050818103600083015261117481611138565b9050919050565b7f45524332303a207472616e7366657220746f20746865207a65726f206164647260008201527f6573730000000000000000000000000000000000000000000000000000000000602082015250565b60006111d7602383610b36565b91506111e28261117b565b604082019050919050565b60006020820190508181036000830152611206816111ca565b9050919050565b7f45524332303a207472616e7366657220616d6f756e742065786365656473206260008201527f616c616e63650000000000000000000000000000000000000000000000000000602082015250565b6000611269602683610b36565b91506112748261120d565b604082019050919050565b600060208201905081810360008301526112988161125c565b905091905056fea264697066735822122092f6a227b17a5ceec4e990ade79bf37a88f1a276c36b41f5497cd23fc61267d564736f6c634300080e0033a2646970667358221220376ca206ca8ac073f8b47a1ae8f2f37a60526cb3513459fdd983ff5e0765c14d64736f6c634300080e0033",
  "devdoc": {
    "kind": "dev",
    "methods": {},
    "version": 1
  },
  "userdoc": {
    "kind": "user",
    "methods": {},
    "version": 1
  },
  "storageLayout": {
    "storage": [
      {
        "astId": 717,
        "contract": "contracts/Factory.sol:Factory",
        "label": "RealEstateContracts",
        "offset": 0,
        "slot": "0",
        "type": "t_array(t_contract(RealEstateToken)878)dyn_storage"
      }
    ],
    "types": {
      "t_array(t_contract(RealEstateToken)878)dyn_storage": {
        "base": "t_contract(RealEstateToken)878",
        "encoding": "dynamic_array",
        "label": "contract RealEstateToken[]",
        "numberOfBytes": "32"
      },
      "t_contract(RealEstateToken)878": {
        "encoding": "inplace",
        "label": "contract RealEstateToken",
        "numberOfBytes": "20"
      }
    }
  }
}